:020000040800F2
:1000000000C000207D1C0008A1160008A3160008EF
:10001000A5160008A7160008A91600080000000091
:10002000000000000000000000000000AB16000807
:10003000AD16000800000000AF160008B116000859
:10004000C51C0008C51C0008C51C0008C51C00080C
:10005000C51C0008C51C0008C51C0008C51C0008FC
:10006000C51C0008C51C0008C51C0008C51C0008EC
:10007000C51C0008C51C0008C51C0008C51C0008DC
:10008000C51C0008C51C0008C51C0008C51C0008CC
:10009000C51C0008C51C0008C51C0008C51C0008BC
:1000A000C51C0008C51C0008C51C0008C51C0008AC
:1000B000C51C0008C51C0008C51C0008C51C00089C
:1000C000C51C0008C51C0008C51C0008C51C00088C
:1000D000C51C0008B9160008C9160008D916000882
:1000E000C51C0008C51C0008C51C0008C51C00086C
:1000F000C51C0008C51C0008C51C0008C51C00085C
:10010000C51C0008C51C0008C51C0008C51C00084B
:10011000C51C0008C51C0008E9160008C51C00081D
:10012000C51C0008C51C0008C51C0008C51C00082B
:1001300000000000000000000000000000000000BF
:1001400000000000000000000000000000000000AF
:10015000000000000000000000000000000000009F
:10016000000000000000000000000000000000008F
:10017000000000000000000000000000000000007F
:10018000000000000000000000000000000000006F
:10019000000000000000000000000000000000005F
:1001A000000000000000000000000000000000004F
:1001B000000000000000000000000000000000003F
:1001C000000000000000000000000000000000002F
:1001D000000000000000000000000000000000001F
:0401E0005FF8E0F1F3
:1001E80010B5054C237833B9044B13B10448AFF369
:1001F80000800123237010BD40040020000000008F
:100208008C5E000808B5034B1BB103490348AFF3E4
:10021800008008BD00000000440400208C5E000837
:1002280081F0004102E000BF83F0004330B54FEA9F
:1002380041044FEA430594EA050F08BF90EA020F0C
:100248001FBF54EA000C55EA020C7FEA645C7FEA9F
:10025800655C00F0E2804FEA5454D4EB5555B8BFC2
:100268006D420CDD2C4480EA020281EA030382EA33
:10027800000083EA010180EA020281EA0303362DC5
:1002880088BF30BD11F0004F4FEA01314FF4801C98
:100298004CEA113102D0404261EB410113F0004FAA
:1002A8004FEA03334CEA133302D0524263EB430361
:1002B80094EA050F00F0A780A4F10104D5F1200EFF
:1002C8000DDB02FA0EFC22FA05F2801841F100015A
:1002D80003FA0EF2801843FA05F359410EE0A5F12E
:1002E80020050EF1200E012A03FA0EFC28BF4CF05F
:1002F800020C43FA05F3C01851EBE37101F0004515
:1003080007D54FF0000EDCF1000C7EEB00006EEB21
:100318000101B1F5801F1BD3B1F5001F0CD34908AB
:100328005FEA30004FEA3C0C04F101044FEA445202
:1003380012F5800F80F09A80BCF1004F08BF5FEA89
:10034800500C50F1000041EB045141EA050130BD69
:100358005FEA4C0C404141EB0101013C28BFB1F57B
:10036800801FE9D291F0000F04BF01460020B1FAC6
:1003780081F308BF2033A3F10B03B3F120020CDA99
:100388000C3208DD02F1140CC2F10C0201FA0CF077
:1003980021FA02F10CE002F11402D8BFC2F1200CDC
:1003A80001FA02F120FA0CFCDCBF41EA0C01904092
:1003B800E41AA2BF01EB0451294330BD6FEA0404DB
:1003C8001F3C1CDA0C340EDC04F11404C4F12002C6
:1003D80020FA04F001FA02F340EA030021FA04F3D8
:1003E80045EA030130BDC4F10C04C4F1200220FA2F
:1003F80002F001FA04F340EA0300294630BD21FA6D
:1004080004F0294630BD94F0000F83F4801306BF32
:1004180081F480110134013D4EE77FEA645C18BF26
:100428007FEA655C29D094EA050F08BF90EA020FBD
:1004380005D054EA000C04BF1946104630BD91EAB5
:10044800030F1EBF0021002030BD5FEA545C05D1B8
:100458004000494128BF41F0004130BD14F58004F7
:100468003CBF01F5801130BD01F0004545F0FE416B
:1004780041F470014FF0000030BD7FEA645C1ABFA0
:10048800194610467FEA655C1CBF0B46024650EAD7
:10049800013406BF52EA033591EA030F41F4002103
:1004A80030BD00BF90F0000F04BF0021704730B589
:1004B8004FF4806404F132044FF000054FF000015E
:1004C80050E700BF90F0000F04BF0021704730B51F
:1004D8004FF4806404F1320410F0004548BF4042F4
:1004E8004FF000013EE700BF42004FEAE2014FEA49
:1004F80031014FEA02701FBF12F07F4393F07F4F24
:1005080081F06051704732F07F4208BF704793F026
:100518007F4F04BF41F40021704730B54FF4607439
:1005280001F0004521F000411CE700BF50EA01023C
:1005380008BF704730B54FF000050AE050EA0102E5
:1005480008BF704730B511F0004502D5404261EB55
:1005580041014FF4806404F132045FEA915C3FF496
:10056800D8AE4FF003025FEADC0C18BF03325FEA33
:10057800DC0C18BF033202EBDC02C2F1200300FAE4
:1005880003FC20FA02F001FA03FE40EA0E0021FA09
:1005980002F11444BDE600BF70B54FF0FF0C4CF4F7
:1005A800E06C1CEA11541DBF1CEA135594EA0C0FA9
:1005B80095EA0C0F00F0DEF82C4481EA030621EAE4
:1005C8004C5123EA4C5350EA013518BF52EA03351F
:1005D80041F4801143F4801338D0A0FB02CE4FF0D1
:1005E8000005E1FB02E506F00042E0FB03E54FF001
:1005F8000006E1FB03569CF0000F18BF4EF0010EF9
:10060800A4F1FF04B6F5007F64F5407404D25FEAF4
:100618004E0E6D4146EB060642EAC62141EA5551A7
:100628004FEAC52040EA5E504FEACE2EB4F1FD0CE9
:1006380088BFBCF5E06F1ED8BEF1004F08BF5FEA67
:10064800500E50F1000041EB045170BD06F0004619
:1006580046EA010140EA020081EA0301B4EB5C04C6
:10066800C2BFD4EB0C0541EA045170BD41F48011BE
:100678004FF0000E013C00F3AB8014F1360FDEBFE3
:10068800002001F0004170BDC4F10004203C35DABF
:100698000C341BDC04F11404C4F1200500FA05F342
:1006A80020FA04F001FA05F240EA020001F00042E3
:1006B80021F0004110EBD37021FA04F642EB060159
:1006C8005EEA430E08BF20EAD37070BDC4F10C0483
:1006D800C4F1200500FA04F320FA05F001FA04F247
:1006E80040EA020001F0004110EBD37041F1000133
:1006F8005EEA430E08BF20EAD37070BDC4F120053E
:1007080000FA05F24EEA020E20FA04F301FA05F2A5
:1007180043EA020321FA04F001F0004121FA04F24D
:1007280020EA020000EBD3705EEA430E08BF20EA1D
:10073800D37070BD94F0000F0FD101F00046400057
:1007480041EB010111F4801F08BF013CF7D041EAD9
:10075800060195F0000F18BF704703F000465200DD
:1007680043EB030313F4801F08BF013DF7D043EAAE
:100778000603704794EA0C0F0CEA135518BF95EA64
:100788000C0F0CD050EA410618BF52EA4306D1D1EB
:1007980081EA030101F000414FF0000070BD50EA0A
:1007A800410606BF1046194652EA430619D094EA94
:1007B8000C0F02D150EA013613D195EA0C0F05D17E
:1007C80052EA03361CBF104619460AD181EA0301D2
:1007D80001F0004141F0FE4141F470014FF000008A
:1007E80070BD41F0FE4141F4780170BD70B54FF025
:1007F800FF0C4CF4E06C1CEA11541DBF1CEA1355A5
:1008080094EA0C0F95EA0C0F00F0A7F8A4EB050486
:1008180081EA030E52EA03354FEA013100F088807D
:100828004FEA03334FF0805545EA131343EA126346
:100838004FEA022245EA111545EA10654FEA0026FB
:100848000EF000419D4208BF964244F1FD0404F5B4
:10085800407402D25B084FEA3202B61A65EB030510
:100868005B084FEA32024FF480104FF4002CB6EBCD
:10087800020E75EB030E22BFB61A754640EA0C004D
:100888005B084FEA3202B6EB020E75EB030E22BF8D
:10089800B61A754640EA5C005B084FEA3202B6EBCE
:1008A800020E75EB030E22BFB61A754640EA9C008D
:1008B8005B084FEA3202B6EB020E75EB030E22BF5D
:1008C800B61A754640EADC0055EA060E18D04FEA1B
:1008D800051545EA16754FEA06164FEAC30343EABB
:1008E80052734FEAC2025FEA1C1CC0D111F4801F88
:1008F8000BD141EA00014FF000004FF0004CB6E781
:1009080011F4801F04BF01430020B4F1FD0C88BF1F
:10091800BCF5E06F3FF6AFAEB5EB030C04BFB6EB2A
:10092800020C5FEA500C50F1000041EB045170BD1D
:100938000EF0004E4EEA113114EB5C04C2BFD4EB4A
:100948000C0541EA045170BD41F480114FF0000ECE
:10095800013C90E645EA060E8DE60CEA135594EA4A
:100968000C0F08BF95EA0C0F3FF43BAF94EA0C0F4D
:100978000AD150EA01347FF434AF95EA0C0F7FF4C2
:1009880025AF104619462CE795EA0C0F06D152EA16
:1009980003353FF4FDAE1046194622E750EA4106FA
:1009A80018BF52EA43067FF4C5AE50EA41047FF40B
:1009B8000DAF52EA43057FF4EBAE12E74FF0FF3C70
:1009C80006E000BF4FF0010C02E000BF4FF0010C41
:1009D8004DF804CD4FEA410C7FEA6C5C4FEA430CBA
:1009E80018BF7FEA6C5C1BD001B050EA410C0CBF09
:1009F80052EA430C91EA030F02BF90EA020F00206B
:100A0800704710F1000F91EA030F58BF994208BFD1
:100A180090422CBFD8176FEAE37040F0010070478E
:100A28004FEA410C7FEA6C5C02D150EA013C07D1E5
:100A38004FEA430C7FEA6C5CD6D152EA033CD3D030
:100A48005DF8040B704700BF8446104662468C462A
:100A58001946634600E000BF01B5FFF7B7FF00285D
:100A680048BF10F1000F01BD4DF808EDFFF7F4FF86
:100A78000CBF012000205DF808FB00BF4DF808ED11
:100A8800FFF7EAFF34BF012000205DF808FB00BF34
:100A98004DF808EDFFF7E0FF94BF012000205DF856
:100AA80008FB00BF4DF808EDFFF7CEFF94BF01200B
:100AB80000205DF808FB00BF4DF808EDFFF7C4FF04
:100AC80034BF012000205DF808FB00BF4A0011D2A6
:100AD80012F5001211D20DD56FF47873B3EB625290
:100AE8000ED44FEAC12343F0004343EA505323FA9C
:100AF80002F070474FF00000704750EA013002D111
:100B08004FF0FF3070474FF000007047844641EACD
:100B1800000313F0030349D1403A23D30B68036061
:100B28004B6843608B688360CB68C3600B69036163
:100B38004B6943618B698361CB69C3610B6A03624B
:100B48004B6A43628B6A8362CB6AC3620B6B036333
:100B58004B6B43638B6B8363CB6BC3634030403118
:100B6800403ADBD230320BD30B6803604B684360EA
:100B78008B688360CB68C36010301031103AF3D2B1
:100B88000C3205D351F8043B40F8043B043AF9D23F
:100B9800043208D0D2071CBF11F8013B00F8013B12
:100BA80001D30B8803806046704700BF082A13D31F
:100BB8008B07B1D010F00303AED0C3F10403D21AEF
:100BC800DB071CBF11F8013B00F8013BA4D331F847
:100BD800023B20F8023B9FE7043AD9D3013A11F8C7
:100BE800013B00F8013BF9D20B7803704B78437056
:100BF8008B788370604670474FEA410C7FEA6C5CE3
:100C080002D150EA013C0AD14FEA430C7FEA6C5CFE
:100C180002D152EA033C02D14FF0000070474FF076
:100C2800010070474FEA410212F5001215D211D5A2
:100C38006FF47873B3EB625212D94FEAC12343F0D1
:100C4800004343EA505311F0004F23FA02F018BF53
:100C5800404270474FF00000704750EA013005D11C
:100C680011F0004008BF6FF0004070474FF00000DF
:100C7800704700BF2DE9F04389B00024049405941F
:100C880006940794334B9A6942F020029A619A6954
:100C980002F020020092009A9A6942F004029A61D6
:100CA8009A6902F004020192019A9A6942F00802D4
:100CB8009A619A6902F008020292029A9A6942F0CD
:100CC80010029A619B6903F010030393039B224F60
:100CD80001224FF40051384601F09EFA1F4D0122BF
:100CE8004FF40061284601F097FA22464FF400417C
:100CF800284601F091FA4FF48058CDF810800594F9
:100D08000226069604A9384601F066F94FF4005306
:100D180004934FF00109CDF814900694079604A99E
:100D2800384601F059F94FF408430493CDF814906C
:100D38000694079604A9284601F04EF9CDF81080CC
:100D48000594069604A9284601F046F909B0BDE8BD
:100D5800F08300BF00100240000C01400008014071
:100D680084460023184605E01CF803205040034A37
:100D7800105C01339942F7DC704700BFA860000897
:100D880084460023184699420FDD10B41CF803204E
:100D980082EA1022054C34F9122082EA002080B23F
:100DA80001339942F2DC10BC70477047A85E000816
:100DB80008B50268214B9A4200D008BD204B1B6839
:100DC800EBB9204A136801331360402B06D0012287
:100DD8001D4919441D4802F0C2FCEEE70122184BD8
:100DE8001A60184B00211960194B17491960194BE3
:100DF8001B6819491944154802F0B1FCDDE7154A8A
:100E0800136801331360402B06D00122124919449C
:100E18000E4802F0A4FCD0E70023094A13600D4AEB
:100E280013600B4B0C4A1A60064B1B6801220649DB
:100E38001944064802F093FCBFE700BF0044004095
:100E4800EC080020E408002064080020840B00203F
:100E580060080020E8080020A4080020034B0020B8
:100E68000021C3E90001C3E90201704720090020FD
:100E7800074BD3E90001074AC2E90201D3E902019D
:100E8800024601F100430449C1E90223704700BF4B
:100E980020090020C00900206009002008B5FFF7DC
:100EA800DDFFFFF7E5FF08BDD0B506460F46094C44
:100EB80002460B46D4E90001FFF7B6F9C4E9000180
:100EC80032463B46D4E90201FFF7B0F9C4E9020112
:100ED800D0BD00BF20090020D0B506460F46094CFA
:100EE80002460B46D4E90001FFF7A0F9C4E9000166
:100EF80032463B46D4E90201FFF796F9C4E90201FC
:100F0800D0BD00BF20090020D0B506460F46094CC9
:100F180002460B46D4E90001FFF788F9C4E900014D
:100F280032463B46D4E90201FFF780F9C4E90201E1
:100F3800D0BD00BF200900202DE9F0031A4B002086
:100F48001A49C3E90801DFF868C000220023CCE988
:100F5800022313A7D7E90067CCE904670024154DDD
:100F6800CCE9064500201449CCE908014FF00008F7
:100F7800DFF84890CCE90A89CCE90C23DFF840C0B7
:100F8800CCE90223CCE90467CCE90645CCE90801A1
:100F9800CCE90A89CCE90C23BDE8F003704700BF0F
:100FA8000000000000408FC02009002000002B40F6
:100FB8006009002000408F4000008E4000006E4015
:100FC800C00900202DE9F04784B08246D0E9108995
:100FD800C0E91289D0E90E45C0E91045D0E90023DF
:100FE80000F10801D1E90001FFF71EF902460B469E
:100FF800CDE90023CAE90E23DAE9086722462B4621
:10100800FFF712F902460B4630463946FFF7C4FA95
:1010180006460F46DAE90A23DDE90001FFF7BCFAC4
:1010280002460B4630463946FFF700F906460F469A
:10103800DAE90C12CDE9021222462B46204629464F
:10104800FFF7F4F802460B46DDE90001FFF7ECF87C
:1010580002460B4640464946FFF7E8F802460B466B
:10106800DDE90201FFF798FA02460B463046394699
:10107800FFF7DCF8DAE91423FFF7D8F802460B4645
:10108800CAE91423DAE9064522462B46FFF714FD80
:1010980008B1CAE91445DAE9044522462B46DAE9DB
:1010A8001401FFF7EBFC08B1CAE9144504B0BDE828
:1010B800F0870000F8B5434B1D68686A00B2FFF777
:1010C80001FA414CC4E9000100276F62D4E900230A
:1010D800D4E91601FFF7AAF8C4E916013B4B1E68CC
:1010E800706A00B2FFF7EEF9394DC5E90001776281
:1010F800D5E90023D5E91601FFF798F8C5E91601E7
:101108002046FFF75FFF00220023D4E91401FFF710
:10111800D3FCF0B12F4B1C682B4BD3E91401FFF71C
:10112800D5FC6063A7632A4C2046FFF74BFF0022DB
:101138000023D4E91401FFF7BFFC30B3254B1C682A
:10114800234BD3E91401FFF7C1FCE06300232364B8
:10115800F8BD002200231C49D1E91401FFF78EFCD9
:1011680028B91C4B1B6800225A639A63DBE7194BAA
:101178001C6800236363144BD3E91456284606F110
:101188000041FFF7A3FCA063CDE70022002310492C
:10119800D1E91401FFF772FC28B90E4B1B68002235
:1011A800DA631A64D4E70B4B1C680023E363084B2B
:1011B800D3E91456284606F10041FFF787FC20645E
:1011C800C6E700BF680A002060090020F80A00206E
:1011D800C0090020200A002008B50268034B9A4283
:1011E80000D008BDFFF766FFFBE700BF0010004016
:1011F80040285FD02DE9F8430C46412801D0BDE8CE
:10120800F883C86800F10040FFF76EF92A4DC5E978
:101218000001206900F10040FFF766F9C5E9020105
:101228006069FFF761F9C5E90401D5E9000102F039
:1012380083FDC5E90801D5E9000102F027FD06464E
:101248000F46D5E9020102F077FD02460B4630460B
:101258003946FFF7A1F9C5E906010022174BD5E980
:101268000601FFF799F9C5E906010022134BD5E9F4
:101278000801FFF791F9C5E908014FF000084FF0A0
:10128800804942464B46D5E9060102F0ADFD0646C7
:101298000F4642464B46D5E9080102F0A5FD024635
:1012A8000B4630463946FEF7C1FF02F00BFEC5E992
:1012B8000A01A4E7704700BFF0080020000059C0E9
:1012C80070B5344B1968C1B1334B18780B46334AA3
:1012D800024440311E685D689C68D8681660556095
:1012E8009460D060103310328B42F3D12A4A1378BD
:1012F80040331370274B00221A60002400E00134A9
:10130800254B1E78331FA3420BDD244D04212819D9
:10131800FFF726FD2B5DFC2BF1D1231DEB5C8342EF
:10132800EDD11E4D321B29192846FFF7EFFB341B60
:10133800E4B2194B1C7004212846FFF711FD2B78E5
:10134800FC2B00D070BD2B798342FBD16E78AD7831
:10135800EB1DA342F6DA11484379847944EA032461
:1013680029460730FFF70CFD84420CD005F108012F
:10137800094E34780948621A0144FFF7C7FB08355B
:10138800651B3570DEE72A4605493046FFF730FF12
:10139800ECE700BF600800205C0800205C04002027
:1013A8006304002072B6FEE700B591B02822002140
:1013B80006A802F01BFA00230193029303930493F7
:1013C8000593012206924FF4803307930A92022272
:1013D8000D920E934FF4E0130F9306A800F038FF18
:1013E80080B90F23019302210291002303934FF444
:1013F80080620492059301A801F06AF920B911B03E
:101408005DF804FBFFF7CEFFFFF7CCFF00000000FC
:1014180038B500F07BFCFFF7C7FFFFF72BFC00F0A7
:10142800B1FA00F067F900F0BFF900F021FB00F015
:1014380093F900F037FB00F04FFB7B4C002120466E
:1014480001F00AFE0421204601F006FE082120468C
:1014580001F002FE0C21204601F0FEFD0421734834
:1014680001F074FE0421724801F070FE714801F029
:10147800CDFA01227049714802F071F9FFF75CFD5D
:10148800FFF70CFD40E0002200236D49D1E9060179
:10149800FFF7F4FA002860D1002200236849D1E957
:1014A8000601FFF7EBFA002871D1654BD3E9080173
:1014B800D3E90623FFF79AF902F05AFA04460D46D3
:1014C8000022002320462946FFF7F6FA002878D0A4
:1014D800FFF7C4FC50A1D1E90001FFF715FD002278
:1014E800584B20462946FFF757F804460D46002278
:1014F800554BFFF7E1FA08B10024534D2046294621
:10150800FFF7D2FCFFF7B4FCFFF7DAFE00224F4BDF
:101518004B49D1E90A01FFF7CFFA002876D000221B
:1015280000234749D1E90601FFF7C6FA0028AAD0E7
:10153800002200234249D1E90801FFF7BDFA00283B
:10154800A1D03F4BD3E90801D3E90623FFF74EF9B1
:1015580002F00EFA04460D46B2E70022002338498D
:10156800D1E90801FFF7A8FA002895D0344BD3E950
:101578000801D3E90623FFF739F902F0F9F928A39E
:10158800D3E90023FEF752FE04460D4698E70022F1
:1015980000232B49D1E90801FFF770FA002884D00D
:1015A800274BD3E90801D3E90623FFF71FF902F017
:1015B800DFF91BA3D3E90023FEF736FE04460D46E8
:1015C8007EE70022002320462946FFF757FA002825
:1015D8009AD0FFF743FC10A1D1E90001FFF794FC72
:1015E80000221B4B20462946FEF7D6FF04460D462F
:1015F8000022154BFFF760FA08B10024124D20466F
:101608002946FFF769FCFFF733FC7DE7FFF746FC47
:101618007AE700BFAFF300800000000000C062401E
:10162800182D4454FB210940200A0020680A002094
:10163800F80A0020B00A002064080020840B00206B
:10164800F00800200080564000005440000014407C
:10165800008056C082B00E4B9A6942F001029A612E
:101668009A6902F001020092009ADA6942F0805207
:10167800DA61DB6903F080530193019B054A5368E3
:1016880023F0E06343F00073536002B0704700BF7B
:101698000010024000000140FEE7FEE7FEE7FEE71B
:1016A800FEE770477047704708B500F041FB08BD7A
:1016B80008B5024801F036FF08BD00BF400B002006
:1016C80008B5024801F02EFF08BD00BF840B0020BA
:1016D80008B5024801F026FF08BD00BFC80B00206E
:1016E80008B5024801F0D3F908BD00BFB00A0020D0
:1016F8007047000000B58DB02422002103A802F035
:1017080075F80023019302931148124A026043605E
:1017180083604FF6FF72C260036183610323039302
:1017280001230593099303A901F012FB50B9002383
:101738000193029301A9064801F06EFD28B90DB086
:101748005DF804FBFFF72EFEF1E7FFF72BFEF6E747
:10175800680A00200008004000B583B00023009309
:1017680001930F480F4A026047224260836040F2AB
:10177800E732C260836101F093FA50B90023009305
:1017880001936946064801F047FD28B903B05DF8A2
:1017980004FBFFF707FEF1E7FFF704FEF6E700BFDB
:1017A800B00A00200010004000B58DB024220021AE
:1017B80003A802F01BF80023019302931248134A6E
:1017C8000260436083604FF6FF72C2600361436149
:1017D80083610323039301230593099303A901F06C
:1017E800B7FA50B900230193029301A9064801F002
:1017F80013FD28B90DB05DF804FBFFF7D3FDF1E741
:10180800FFF7D0FDF6E700BFF80A002000340140DA
:1018180000B583B00368134A934205D0124A934235
:101828000DD003B05DF804FB104BDA6942F00202F8
:10183800DA61DB6903F002030093009BF1E70B4BCD
:10184800DA6942F01002DA61DB6903F010030193F0
:10185800019B00221146362000F08EFA362000F057
:10186800C3FADEE700040040001000400010024008
:1018780000B589B000230493059306930793036882
:101888001E4A934205D01E4A93421CD009B05DF807
:1018980004FB1C4BDA6942F00402DA61DA6902F0EF
:1018A80004020092009A9A6942F008029A619B69C0
:1018B80003F008030193019BC023049304A9124871
:1018C80000F08AFBE2E70F4B9A6942F400529A61F2
:1018D8009A6902F400520292029A9A6942F010023E
:1018E8009A619B6903F010030393039BC02304933D
:1018F80004A9064800F070FBC8E700BF00080040D4
:101908000034014000100240000C0140001001406A
:1019180010B586B0002302930393049305930268DD
:10192800154B9A4201D006B010BD03F503339A69EE
:1019380042F004029A619A6902F004020092009A45
:101948009A6942F008029A619B6903F008030193BF
:10195800019BC023029302240394059402A907481B
:1019680000F03AFB032302930394059402A9044868
:1019780000F032FBD7E700BF000400400008014038
:10198800000C014000B58FB000230A930B930C9311
:101998000D9308930993019302930393049305937A
:1019A800069307933048314A0260472242608360B9
:1019B80040F2E732C2600361836101F071F90028E7
:1019C80039D14FF480530A930AA9274801F0C8FA7D
:1019D800002833D1244801F08FF9002831D10023A1
:1019E8000893099308A9204801F016FC60BB6023FE
:1019F8000193002202920392059201A91A4801F06C
:101A08003BFA20BB04220DEB0201174801F034FA1F
:101A180000BB082201A9144801F02EFAE8B90C22EB
:101A280001A9114801F028FAD0B90F48FFF770FF53
:101A38000FB05DF804FBFFF7B5FCC2E7FFF7B2FC97
:101A4800C8E7FFF7AFFCCAE7FFF7ACFCCFE7FFF743
:101A5800A9FCD7E7FFF7A6FCDBE7FFF7A3FCDEE767
:101A6800FFF7A0FCE1E700BF200A002000040040C7
:101A780008B50A480A4B03604FF4E133436000237A
:101A88008360C36003610C2242618361C36101F01A
:101A980097FC00B908BDFFF785FCFBE7400B002069
:101AA8000038014008B50A480A4B03604FF4E13397
:101AB800436000238360C36003610C224261836139
:101AC800C36101F07DFC00B908BDFFF76BFCFBE7C3
:101AD800840B00200044004008B50A480A4B036004
:101AE8004FF4E133436000238360C36003610C2239
:101AF80042618361C36101F063FC00B908BDFFF76F
:101B080051FCFBE7C80B00200048004030B58BB003
:101B18000023069307930893099303684F4A934257
:101B280007D04F4A934236D04E4A934263D00BB007
:101B380030BD4D4B9A6942F480429A619A6902F429
:101B480080420092009A9A6942F004029A619B6965
:101B580003F004030193019B4FF4007306930223DF
:101B6800079303230993414D06A9284600F034FA48
:101B78004FF48063069300240794089406A9284626
:101B880000F02AFA22462146252000F0F5F8252003
:101B980000F02AF9CBE7344BDA6942F40032DA6113
:101BA800DA6902F400320292029A9A6942F0040257
:101BB8009A619B6903F004030393039B0423069330
:101BC8000223079303230993284D06A9284600F00A
:101BD80003FA0823069300240794089406A92846C4
:101BE80000F0FAF922462146262000F0C5F8262002
:101BF80000F0FAF89BE71C4BDA6942F48022DA61BC
:101C0800DA6902F480220492049A9A6942F008027E
:101C18009A619B6903F008030593059B4FF4806361
:101C280006930223079303230993114D06A9284617
:101C380000F0D2F94FF40063069300240794089447
:101C480006A9284600F0C8F922462146272000F0B8
:101C580093F8272000F0C8F869E700BF0038014072
:101C680000440040004800400010024000080140C5
:101C7800000C01400C480D490D4A002302E0D458DD
:101C8800C4500433C4188C42F9D30A4A0A4C0023BE
:101C980001E013600432A242FBD3FFF729FD01F0F3
:101CA80081FDFFF7B5FB7047000000203C040020D1
:101CB800FC63000840040020140C0020FEE700002C
:101CC80010B504460E4B18784FF47A73B3FBF0F353
:101CD8000C4A1068B0FBF3F000F094F868B90F2CC8
:101CE80001D901200AE0002221464FF0FF3000F020
:101CF80043F8054B1C60002000E0012010BD00BF28
:101D080004000020000000200800002008B5074A51
:101D1800136843F010031360032000F01BF80F2032
:101D2800FFF7CEFFFFF796FC002008BD0020024019
:101D3800034A1168034B1B780B441360704700BFBC
:101D48000C0C002004000020014B1868704700BFED
:101D58000C0C0020074AD36823F4E0631B041B0C17
:101D6800000200F4E060034343F0BF6343F4003330
:101D7800D360704700ED00E000B5194BDB68C3F392
:101D88000223C3F1070CBCF1040F28BF4FF0040C69
:101D980003F1040EBEF1060F18D9033B4FF0FF3EC6
:101DA8000EFA0CFC21EA0C0199400EFA03F322EA20
:101DB8000303194300280BDB0901C9B200F1604095
:101DC80000F5614080F800135DF804FB0023E5E7A7
:101DD80000F00F000901C9B2024B1954F4E700BF23
:101DE80000ED00E014ED00E0002807DB00F01F0222
:101DF800400901239340024A42F82030704700BF4F
:101E080000E100E00138B0F1807F0BD24FF0E02311
:101E18005861054AF02182F82310002098610722B2
:101E28001A6170470120704700ED00E090F82130FA
:101E3800022B06D004238363002380F8203001207E
:101E480070470268136823F00E0313600268136872
:101E580023F001031360036CC16B012202FA03F340
:101E68004B6080F82120002380F820301846704706
:101E780008B590F82130022B03D004238363012096
:101E880008BD0268136823F00E0313600268136824
:101E980023F00103136003684B4A93424ED9783A02
:101EA800934224D01432934230D0143293422FD02C
:101EB800143293422FD0143293422FD014329342CB
:101EC8002FD0143293422FD002F5627293422ED053
:101ED800143293422DD0143293422CD014329342B0
:101EE80002D04FF4803203E04FF4805200E0012228
:101EF800364B5A60012380F82130002380F82030C7
:101F0800436B002B5ED098470020B9E71022EFE71B
:101F18004FF48072ECE74FF48052E9E74FF48032D7
:101F2800E6E74FF48012E3E74FF08072E0E7012222
:101F3800DEE71022DCE74FF48072D9E7244A9342A7
:101F480024D01432934225D01432934224D0143230
:101F5800934224D01432934224D01432934224D092
:101F68001432934224D002F56272934223D0143281
:101F7800934222D01432934221D01432934202D099
:101F88004FF4803203E04FF4805200E00122114BFD
:101F98005A60AFE71022FAE74FF48072F7E74FF480
:101FA8008052F4E74FF48032F1E74FF48012EEE705
:101FB8004FF08072EBE70122E9E71022E7E74FF4E0
:101FC8008072E4E700205BE78000024000040240E2
:101FD800080002400000024070B582B00024A44608
:101FE800B0E0874DAA4210D007D9864DAA420CD03E
:101FF80005F58035AA4208D013E0A5F58015AA4258
:1020080003D005F57025AA4207D18A68002A62D054
:10201800012A5BD04361082403E0A5F58015AA4294
:10202800F3D0BEF1FF0F58D80646BEF1FF0F56D8C1
:102038004FEA8C0233680F25954023EA050304FA1A
:1020480002F2134333604B6813F0805F78D06E4B15
:102058009A6942F001029A619B6903F001030193B6
:10206800019B4FEA9C02951C684B53F825600CF0C5
:1020780003039D000F23AB4026EA0306644B9842F6
:1020880033D003F58063984200F0988003F58063AD
:10209800984200F0958003F58063984200F09280A2
:1020A80003F58063984200F08F8003F580639842BF
:1020B80019D006231AE0CC68B3E7CC680434B0E73B
:1020C800CC680834ADE7CC680C34AAE7036108246F
:1020D800A7E70024A5E70424A3E7061DA5E7ACF1BC
:1020E80008029200A6E7052300E00023AB40334333
:1020F8000232464D45F822304B6813F4803F65D0D4
:10210800444A136843EA0E0313604B6813F4003F14
:1021180062D0404A536843EA0E0353604B6813F495
:10212800801F5FD03B4A936843EA0E0393604B6875
:1021380013F4001F5CD0374AD36843EA0E03D36018
:102148000CF1010C0A6832FA0CF357D0012303FA98
:102158000CF302EA030E33EA0202F1D14A68122AAA
:102168003FF63FAF122A3FF65CAF01A555F822F0C3
:1021780013200008BF200008C9200008DB20000841
:102188002B2000082B2000082B2000082B200008FB
:102198002B2000082B2000082B2000082B200008EB
:1021A8002B2000082B2000082B2000082B200008DB
:1021B8002B200008C3200008CF200008012395E742
:1021C800022393E7032391E704238FE7114A136857
:1021D80023EA0E03136098E70E4A536823EA0E03B6
:1021E80053609BE70B4A936823EA0E0393609EE7CC
:1021F800084AD36823EA0E03D360A1E702B070BD92
:1022080000002210000031100010024000000140C0
:1022180000080140000401400AB101617047090447
:102228000161704782B0084B1B68084AA2FB032370
:102238005B0A00FB03F3019300BF019B5A1E019246
:10224800002BF9D102B0704700000020D34D621076
:10225800002800F0F18170B582B00446036813F0DD
:10226800010F2CD0994B5B6803F00C03042B1DD095
:10227800964B5B6803F00C03082B12D06368B3F528
:10228800803F41D0002B55D103F1804303F504333F
:102298001A6822F480321A601A6822F480221A60BE
:1022A80037E08A4B5B6813F4803FE7D0874B1B68A5
:1022B80013F4003F03D06368002B00F0BF8123684C
:1022C80013F0020F75D0814B5B6813F00C0F5FD0D1
:1022D8007E4B5B6803F00C03082B54D02369002B5A
:1022E80000F08A807A4B01221A60FFF72DFD05461F
:1022F800764B1B6813F0020F75D1FFF725FD401BC5
:102308000228F5D903209EE1704A136843F480330C
:102318001360636843B3FFF717FD05466B4B1B68F3
:1023280013F4003FCBD1FFF70FFD401B6428F5D90C
:10233800032088E1B3F5A02F09D0644B1A6822F472
:1023480080321A601A6822F480221A60E1E703F1E9
:102358008043A3F53C331A6842F480221A601A6855
:1023680042F480321A60D4E7FFF7EEFC0546574B7B
:102378001B6813F4003FA2D0FFF7E6FC401B64285B
:10238800F5D903205FE1514B5B6813F4803FA5D179
:102398004E4B1B6813F0020F03D02369012B40F04A
:1023A8004F814A4A136823F0F803616943EAC1037D
:1023B8001360236813F0080F33D0A369002B5CD097
:1023C800434B0122C3F88024FFF7BEFC05463F4B70
:1023D8005B6A13F0020F21D1FFF7B6FC401B0228FD
:1023E800F5D903202FE1394A136823F0F80361690E
:1023F80043EAC1031360DCE7354B00221A60FFF79C
:10240800A3FC0546314B1B6813F0020FD1D0FFF730
:102418009BFC401B0228F5D9032014E10120FFF79B
:1024280001FF236813F0040F00F09680274BDB6947
:1024380013F0805F34D1254BDA6942F08052DA61BB
:10244800DB6903F080530193019B0125214B1B6835
:1024580013F4807F26D0E368012B3DD0002B53D1A5
:1024680003F1804303F504331A6A22F001021A6269
:102478001A6A22F004021A6233E0154B0022C3F8EC
:102488008024FFF761FC0546104B5B6A13F0020FCE
:10249800C7D0FFF759FC401B0228F5D90320D2E02A
:1024A8000025D3E70B4A136843F480731360FFF7E2
:1024B8004BFC0646074B1B6813F4807FCBD1FFF714
:1024C80043FC801B6428F5D90320BCE000100240BF
:1024D80000004242007000405F4A136A43F0010363
:1024E8001362E36833B3FFF72FFC06465A4B1B6AA7
:1024F80013F0020F2FD1FFF727FC801B41F288331E
:102508009842F3D903209EE0052B09D0524B1A6A52
:1025180022F001021A621A6A22F004021A62E0E743
:102528004D4B1A6A42F004021A621A6A42F001021A
:102538001A62D6E7FFF708FC0646474B1B6A13F0FA
:10254800020F08D0FFF700FC801B41F28833984245
:10255800F3D9032077E0E5B9E369002B72D03E4A4E
:10256800526802F00C02082A56D0022B17D03B4BB7
:1025780000221A66FFF7E8FB0446374B1B6813F086
:10258800007F47D0FFF7E0FB001B0228F5D90320A6
:1025980059E0314AD36923F08053D361DCE72F4BEC
:1025A80000221A66FFF7D0FB05462B4B1B6813F079
:1025B800007F06D0FFF7C8FB401B0228F5D903208F
:1025C80041E0236AB3F5803F1AD023494B6823F4CE
:1025D8007413226A606A024313434B601F4B012243
:1025E8001A66FFF7B1FB04461B4B1B6813F0007F0C
:1025F8000ED1FFF7A9FB001B0228F5D9032022E022
:10260800154A536823F40033A1680B435360DCE791
:10261800002018E0002016E0012B16D00E4B5B6856
:1026280003F48031226A914211D103F47013626A73
:1026380093420ED1002006E001207047012002E0FD
:10264800012000E0002002B070BD0120FBE701205E
:10265800F9E70120F7E700BF0010024000004242FE
:1026680086B0174B0FCB0DF1180C0CE90F0040F298
:102678000123ADF80430134B5B6803F00C02082A01
:1026880002D0114806B07047C3F3834218326A4437
:1026980012F8100C13F4803F0DD00A4B5B68C3F39B
:1026A800404318336B4413F8143C074A02FB00F00C
:1026B800B0FBF3F0E6E7054B03FB00F0E2E700BFF1
:1026C800C06100080010024000127A0000093D00B5
:1026D800002800F0A08070B50D460446524B1B68D8
:1026E80003F007038B420BD24F4A136823F007030A
:1026F8000B431360136803F007038B4240F08D808F
:10270800236813F0020F17D013F0040F04D0474AC0
:10271800536843F4E0635360236813F0080F04D050
:10272800424A536843F460535360404A536823F065
:10273800F003A1680B435360236813F0010F31D0F5
:102748006368012B20D0022B25D0384A126812F07A
:10275800020F64D035494A6822F0030213434B60E4
:10276800FFF7F2FA0646314B5B6803F00C03626828
:10277800B3EB820F16D0FFF7E7FA801B41F28833DC
:102788009842F0D9032045E0284A126812F4003F25
:10279800E0D101203EE0254A126812F0007FD9D12D
:1027A800012037E0204B1B6803F00703AB420AD92E
:1027B8001D4A136823F007032B431360136803F0C3
:1027C8000703AB422DD1236813F0040F06D0174A34
:1027D800536823F4E063E1680B435360236813F004
:1027E800080F07D0114A536823F46053216943EA5C
:1027F800C1035360FFF734FF0C4B5B68C3F303134B
:102808000B4AD35CD8400B4B18600B4B1868FFF78A
:1028180057FA002070BD012070470120FAE7012017
:10282800F8E70120F6E700BF002002400010024050
:10283800A86100080000002008000020014B18686B
:10284800704700BF0000002008B5FFF7F7FF044BF2
:102858005B68C3F30223034AD35CD84008BD00BFBA
:1028680000100240B861000808B5FFF7E7FF044B05
:102878005B68C3F3C223034AD35CD84008BD00BFDA
:1028880000100240B861000830B4036A23F0010365
:102898000362036A4268846924F073040D682C4358
:1028A80023F0020C8B6843EA0C03104DA84203D0B6
:1028B80005F50065A84205D123F00803CD682B4330
:1028C80023F00403094DA84203D005F50065A8428A
:1028D80005D122F440724D692A438D692A4342602A
:1028E80084614A684263036230BC7047002C01402F
:1028F80030B4036A23F480730362036A4268C469CC
:1029080024F0730C0C6844EA0C0523F400738C68FB
:1029180043EA0423114CA04203D004F50064A0420A
:1029280006D123F40063CC6843EA042323F48063CC
:102938000A4CA04203D004F50064A04207D122F457
:1029480040524C6942EA04128C6942EA041242601D
:10295800C5614A68C263036230BC7047002C0140FD
:1029680030B4036A23F480530362036A4468C2697B
:1029780022F4E6420D6842EA052223F400538D68EA
:1029880043EA0533094DA84203D005F50065A8427E
:1029980004D124F480444D6944EA85144460C2613A
:1029A8004A680264036230BC704700BF002C0140D3
:1029B80010B4036A046A24F001040462846924F0F0
:1029C800F00C4CEA021223F00A030B438261036203
:1029D80010BC704710B4046A24F0100404628469BF
:1029E800036A24F4704C4CEA023223F0A00343EA51
:1029F80001138261036210BC7047836823F070037F
:102A08000B4343F0070383607047000090F83D30A4
:102A1800DBB2012B2FD1022380F83D300268D36846
:102A280043F00103D3600368154A934218D002F5B6
:102A38000062934214D0B3F1804F11D0A2F59832BE
:102A480093420DD002F58062934209D002F580626C
:102A5800934205D01A6842F001021A6000207047BC
:102A68009A6802F00702062A07D01A6842F00102A3
:102A78001A6000207047012070470020704700BF8F
:102A8800002C01407047704770477047704710B579
:102A9800044603681A6912F0020F11D0DA6812F0BE
:102AA800020F0DD06FF002021A6101230377036849
:102AB8009B6913F0030F70D0FFF7E6FF002323771D
:102AC80023681A6912F0040F12D0DA6812F0040FA2
:102AD8000ED06FF004021A610223237723689B69E2
:102AE80013F4407F5FD02046FFF7CEFF0023237703
:102AF80023681A6912F0080F12D0DA6812F0080F6A
:102B08000ED06FF008021A61042323772368DB696B
:102B180013F0030F4ED02046FFF7B6FF00232377AC
:102B280023681A6912F0100F12D0DA6812F0100F29
:102B38000ED06FF010021A61082323772368DB692F
:102B480013F4407F3DD02046FFF79EFF00232377F4
:102B580023681A6912F0010F03D0DA6812F0010F26
:102B680036D123681A6912F0800F03D0DA6812F0A0
:102B7800800F34D123681A6912F0400F03D0DA6845
:102B880012F0400F32D123681A6912F0200F03D0D7
:102B9800DA6812F0200F30D110BDFFF774FF20461D
:102BA800FFF773FF8AE72046FFF76DFF2046FFF720
:102BB8006CFF9BE72046FFF766FF2046FFF765FF9F
:102BC800ACE72046FFF75FFF2046FFF75EFFBDE753
:102BD8006FF001021A612046FEF7FEFAC1E76FF0B6
:102BE80080021A61204600F056FBC3E76FF04002EE
:102BF8001A612046FFF74AFFC5E76FF020021A6105
:102C0800204600F047FBC7E70368244A904212D0E9
:102C180002F5006290420ED0B0F1804F0BD0A2F5C1
:102C28009832904207D002F58062904203D002F5B4
:102C38008062904203D123F070034A681343174A15
:102C4800904212D002F5006290420ED0B0F1804F4F
:102C58000BD0A2F59832904207D002F580629042DC
:102C680003D002F58062904203D123F44073CA680E
:102C7800134323F080034A69134303608B68C362DC
:102C88000B688362054B984203D003F500639842B2
:102C980001D10B690363012343617047002C014094
:102CA80040B310B5044690F83D30F3B1022384F8E0
:102CB8003D30214651F8040BFFF7A6FF012384F8A5
:102CC800463084F83E3084F83F3084F8403084F849
:102CD800413084F8423084F8433084F8443084F832
:102CE800453084F83D30002010BD80F83C30FEF7B8
:102CF8008FFDDBE70120704740B310B5044690F81C
:102D08003D30F3B1022384F83D30214651F8040BDD
:102D1800FFF77AFF012384F8463084F83E3084F8C0
:102D28003F3084F8403084F8413084F8423084F8E9
:102D3800433084F8443084F8453084F83D3000202E
:102D480010BD80F83C30FFF79DFEDBE7012070479F
:102D5800002857D070B50D46044690F83D30002B3A
:102D68004BD0022384F83D302268936823F48043D3
:102D780023F007039360214651F8040BFFF744FF43
:102D880021688A688B690E6A2868104323F4407C9E
:102D98002CF0030CAA68AB6942EA032343EA0C034C
:102DA80023F47C4323F0FC03EA69D5F80CC04CEA11
:102DB800022C4CEA030C2A6A13032A6943EA021319
:102DC80043EA0C0326F022066A686D6942EA051296
:102DD8003243886021688B6123681A62012384F872
:102DE800463084F83E3084F83F3084F8423084F826
:102DF800433084F83D30002070BD80F83C30FEF749
:102E080037FDAEE70120704730B4036A23F01003A2
:102E18000362036A4468826922F4E6420D6842EA62
:102E2800052223F020038D6843EA0513114DA842BB
:102E380003D005F50065A84206D123F08003CD68CC
:102E480043EA051323F040030A4DA84203D005F5D1
:102E58000065A84207D124F440644D6944EA85041A
:102E68008D6944EA8504446082614A68826303622A
:102E780030BC7047002C014038B590F83C30012B2D
:102E880060D004460D46012380F83C300C2A1AD83D
:102E9800DFE802F0071919191D191919311919193B
:102EA80044000068FFF7F0FC2268936943F00803C8
:102EB80093612268936923F00403936122689369FC
:102EC80029690B439361002084F83C0038BD0068F1
:102ED800FFF79AFF2268936943F4006393612268BD
:102EE800936923F48063936122689369296943EAAB
:102EF80001239361E7E70068FFF7FAFC2268D369CA
:102F080043F00803D3612268D36923F00403D36133
:102F18002268D36929690B43D361D4E70068FFF7B6
:102F28001FFD2268D36943F40063D3612268D36923
:102F380023F48063D3612268D369296943EA0123B2
:102F4800D361C0E70220C1E710B4846824F47F4C41
:102F580042EA03220A4342EA0C02826010BC70472C
:102F680090F83C30012B66D010B50446012380F858
:102F78003C30022380F83D300268936823F47F4395
:102F880023F0770393600B68602B40D022D8402B46
:102F980047D00BD9502B0ED1CA6849680068FFF793
:102FA80007FD50212068FFF728FD04E0202B0CD0F6
:102FB80008D9302B09D0012384F83D30002084F84B
:102FC8003C0010BD0BB1102BF5D119462068FFF756
:102FD80014FDF0E7702B0ED0B3F5005FEBD1CB6892
:102FE8004A6889680068FFF7AFFF2268936843F46E
:102FF80080439360DFE7CB684A6889680068FFF719
:10300800A3FF2268936843F077039360D3E7CA6805
:1030180049680068FFF7DEFC60212068FFF7EDFCD7
:10302800C9E7CA6849680068FFF7C2FC4021206800
:10303800FFF7E3FCBFE70220704701F01F010123FF
:1030480003FA01FC036A23EA0C030362036A02FA27
:1030580001F10B430362704710B504460846002986
:103068003AD194F83E30DBB2013B18BF0123002B64
:1030780066D1002849D1022384F83E300122014656
:103088002068FFF7DAFF23682F4A934203D002F53E
:103098000062934203D15A6C42F400425A64236896
:1030A800294A934241D002F5006293423DD0B3F1E0
:1030B800804F3AD0A2F59832934236D002F580621A
:1030C800934232D002F5806293422ED01A6842F0C1
:1030D80001021A60002032E0042908D008290DD026
:1030E80094F84130DBB2013B18BF0123BFE794F8E5
:1030F8003F30DBB2013B18BF0123B8E794F84030FA
:10310800DBB2013B18BF0123B1E7042805D008282A
:1031180007D0022384F84130B0E7022384F83F3017
:10312800ACE7022384F84030A8E79A6802F0070267
:10313800062A07D01A6842F001021A60002010BD62
:103148000120FCE70020FAE7002C014038B50446CE
:1031580090F83E00C0B294F83F3094F84220D2B2C2
:1031680094F843C00D46B1B9012849D1012A48D184
:10317800022384F83E3084F842307DB3042D39D0E0
:10318800012200212068FFF758FF0122042120684E
:10319800FFF753FF27E0DBB25FFA8CFC042912D05B
:1031A800012833D1012B2CD1012A31D1BCF1010FD7
:1031B80030D1022384F83E3084F83F3084F842301E
:1031C80084F84330D9E7012B1CD1BCF1010F1BD186
:1031D800022384F83F3084F84330CEE701220021EF
:1031E8002068FFF72AFF2268136843F00103136081
:1031F800002006E0012204212068FFF71EFFF2E705
:10320800012038BD0120FCE71846FAE70120F8E75D
:103218001846F6E71046F4E790F83C30012B34D016
:1032280010B4012380F83C30022380F83D30036855
:103238005A689C6822F0700C0A6842EA0C025A60CC
:103248000368134A934212D002F5006293420ED0EB
:10325800B3F1804F0BD0A2F59832934207D002F514
:103268008062934203D002F58062934204D124F035
:1032780080044A6814439C60012380F83D30002391
:1032880080F83C30184610BC70470220704700BFD9
:10329800002C0140704770470268D36823F490738C
:1032A800D3600268536923F001035361036B012B58
:1032B80005D0202380F83E3000230363704702685E
:1032C800D36823F01003D360F3E790F83D30DBB206
:1032D800212B01D0022070478368B3F5805F17D097
:1032E800036A5A1C02621A7803685A60C38C9BB23C
:1032F800013B9BB2C3844BB90268D36823F08003B7
:10330800D3600268D36843F04003D360002070475D
:103318000369002BE4D1036A1B880268C3F308031E
:103328005360036A02330362E0E7000010B5044605
:103338000268136923F44053C1680B43136183681F
:103348000269134342691A430168CB6823F4B053F6
:1033580023F00C031343CB600268536923F44073D2
:1033680081690B4353610268134B9A4220D0FFF7DF
:103378006BFA024602EB820202EB820263689B0050
:10338800B2FBF3F20D48A0FB02314909642303FBA9
:1033980011231B013233A0FB03235B0903F0F00266
:1033A80002EB011203F00F03216813448B6010BD78
:1033B800FFF75AFA0246DDE7003801401F85EB5156
:1033C80058B310B5044690F83D300BB3242384F865
:1033D8003D302268D36823F40053D3602046FFF7BA
:1033E800A5FF2268136923F4904313612268536987
:1033F80023F02A0353612268D36843F40053D3604F
:1034080000202064202384F83D3084F83E3010BD2D
:1034180080F83C30FEF77AFBD8E701207047704708
:1034280008B50168CA6822F04002CA60202280F804
:103438003D20FFF7F4FF002008BD704708B5406A3B
:103448000023C385C384FFF7F8FF08BD704790F8D1
:103458003E30DBB2222B60D18368B3F5805F46D063
:10346800826AB3F5805F04D0002B4DD10369002B2D
:103478004AD103685B681370836A01338362C38D22
:103488009BB2013B9BB2C385002B48D100B583B0EA
:103498000268D36823F02003D3600268D36823F45A
:1034A8008073D3600268536923F0010353612023BA
:1034B80080F83E30036B012B2CD100230363026894
:1034C800D36823F01003D36003681A6812F0100F52
:1034D80006D0002201921A6801925B680193019B51
:1034E800818DFFF7B3FF002003B05DF804FB02698C
:1034F800002AB5D1826A03685B68C3F308031380A6
:10350800836A02338362BAE703685B6803F07F0368
:103518001370B1E7FDF74CFCE5E702207047002087
:103528007047000030B583B0044602681368D0685D
:10353800516913F00F0505D113F0200F02D010F0D8
:10354800200F19D12DB111F0010119D110F4907F7C
:1035580016D1216B012975D013F0800F03D010F01C
:10356800800F40F0D78013F0400F03D010F0400FC9
:1035780040F0D48003B030BD2046FFF768FFF9E77C
:1035880013F0010F06D010F4807F03D0226C42F0B4
:103598000102226413F0040F04D019B1226C42F026
:1035A8000202226413F0020F04D019B1226C42F017
:1035B8000402226413F0080F07D010F0200F00D186
:1035C80019B1226C42F008022264226C002AD1D080
:1035D80013F0200F02D010F0200F21D123685B696F
:1035E80003F04003226C12F0080F00D123B32046E9
:1035F800FFF752FE23685A6912F0400F18D05A6933
:1036080022F040025A61A36B73B1464A5A63A06B19
:10361800FEF72EFC0028ADD0A06B436B9847A9E7B6
:103628002046FFF714FFD9E72046FFF706FFA1E77A
:103638002046FFF702FF9DE72046FFF7FEFE002326
:10364800236497E713F0100F86D010F0100F83D083
:10365800002301931368019353680193019B5369F5
:1036680013F0400F32D0A16B0B685B689BB2002B44
:1036780080D0A08D98427FF67DAFE3858B69202BA3
:1036880008D1A18DE38D9BB2C91A89B22046FFF7F4
:10369800DDFE6FE7D36823F48073D3602268536933
:1036A80023F0010353612268536923F040035361F7
:1036B800202384F83E30002323632268D36823F054
:1036C8001003D360A06BFEF7B1FBDAE7A18DE38DA1
:1036D8009BB2C91A89B2E38D9BB2002B3FF44AAF63
:1036E80000293FF447AFD36823F49073D36022686E
:1036F800536923F001035361202384F83E300023EB
:1037080023632268D36823F01003D3602046FFF7B1
:103718009DFE2FE72046FFF7D8FD2BE72046FFF751
:103728007FFE27E745340008034681628285C2850B
:1037380000201864222283F83E2083F83C00196890
:10374800CA6842F48072CA6019684A6942F0010284
:103758004A611A68D36843F02003D360704708B5FC
:1037680090F83E30DBB2202B0DD171B17AB190F8D0
:103778003C30012B0DD0012380F83C30002303633B
:10378800FFF7D2FF00E0022008BD0120FCE701207E
:10379800FAE70220F8E70000014B1868704700BFFD
:1037A8000C00002070B50D4E0D4D761BB61006D0DE
:1037B800002455F8043B01349847A642F9D1094E34
:1037C800094D02F05FFB761BB61006D0002455F8B1
:1037D800043B01349847A642F9D170BDF063000854
:1037E800F0630008F8630008F0630008830730B549
:1037F80048D0541E002A3FD00346CAB201E0013C1B
:103808003AD303F8012B9D07F9D1032C2DD9CDB25A
:1038180045EA05250F2C45EA054536D9A4F11002DD
:1038280022F00F0C03F1200EE6444FEA121C03F1BC
:10383800100242E9045542E9025510327245F8D1A6
:103848000CF1010214F00C0F03EB021204F00F0C40
:1038580013D0ACF1040323F003030433134442F8F8
:10386800045B9342FBD10CF003042CB1CAB21C4494
:1038780003F8012B9C42FBD130BD64461346002C53
:10388800F4D1F9E703461446BFE71A46A446E0E731
:10389800024B13B1024800F005B870470000000061
:1038A800B9380008002301461A46184600F01AB82D
:1038B80038B5084B084D5B1B9C1007D0043B1D44D2
:1038C800013C55F804399847002CF9D1BDE8384037
:1038D80002F0DEBAFC630008F8630008704700BF16
:1038E800704700BF2DE9F047DFF87CA00646DAF8FC
:1038F800000098460F469146FFF7F0FF1B4B1B68E8
:10390800D3F8484124B365681F2D26DC5EB96B1CCB
:103918000235DAF80000636044F82570FFF7E0FF2D
:103928000020BDE8F087012304EB8501C1F88890E9
:10393800D4F88821AB401A43022EC4F88821C1F874
:103948000881E4D1D4F88C211343C4F88C31DEE724
:1039580003F5A674C3F84841D5E7DAF80000FFF785
:10396800BFFF4FF0FF30DCE738040020D4610008C7
:103978002DE9F84FB84F21F00046BE4204460D46E7
:103988008A461CDDB54B9E420DDC0AD0B44BB54AC5
:10399800B54CBAF1000FD8BF134620461946BDE80A
:1039A800F88F0028F2D022462B4620462946FCF7FD
:1039B8003DFC04460B4620461946BDE8F88FAB4B44
:1039C8009E4200F3B080A3F1DE739E4240F39D80D7
:1039D8004FF0FF3B22462B4620462946FCF7DCFDEC
:1039E80002460B4680468946FCF7D6FD82A3D3E9FA
:1039F800002306460F46FCF7CFFD81A3D3E9002339
:103A0800FCF714FC32463B46FCF7C6FD7EA3D3E91F
:103A18000023FCF70BFC32463B46FCF7BDFD7CA3BC
:103A2800D3E90023FCF702FC32463B46FCF7B4FD21
:103A380079A3D3E90023FCF7F9FB32463B46FCF7B0
:103A4800ABFD77A3D3E90023FCF7F0FB42464B46D6
:103A5800FCF7A2FD74A3D3E90023804689463046CB
:103A68003946FCF799FD72A3D3E90023FCF7DCFB88
:103A780032463B46FCF790FD6FA3D3E90023FCF7E1
:103A8800D3FB32463B46FCF787FD6DA3D3E9002301
:103A9800FCF7CAFB32463B46FCF77EFD6AA3D3E936
:103AA8000023FCF7C1FB32463B46FCF775FDBBF132
:103AB800FF3F02460B464046494653D0FCF7B6FB4B
:103AC8006B4E22462B46FCF767FD6A4B06EBCB068E
:103AD8004FEACB0B9B44DBE90023FCF7A5FB22460E
:103AE8002B46FCF7A1FB0B460246D6E90001FCF782
:103AF8009BFBBAF1000F04460B46BFF64EAF01F12F
:103B0800004320461946BDE8F88F51A3D3E90023A6
:103B1800FCF78CFB0022584BFCF7CEFF00283FF443
:103B280057AF2B4639E700F003F9544B04469E4241
:103B38000D4629DCA3F550239E4250DC02460B4675
:103B4800FCF774FB00224C4BFCF76EFB02460B465D
:103B58002046294614461D464FF0000B00224FF020
:103B6800804326E0FCF762FB22462B46FCF714FD57
:103B780002460B4620462946FCF756FB04460B46F0
:103B880020461946BDE8F88F3D4B9E421CDA0022BC
:103B98003C4BFCF749FB02460B4620462946144697
:103BA8001D460022374B4FF0020BFCF7F5FC0022B4
:103BB800314BFCF73BFB02460B4620462946FCF7F7
:103BC80015FE04460D4605E702460B4600202E4921
:103BD800FCF70CFE4FF0030B04460D46FAE60022F4
:103BE800254BFCF721FB02460B46204629464FF0A1
:103BF800010B14461D46DAE711DA22E33AAD903F8D
:103C0800EB0D76244B7BA93F513DD0A0660DB13F0B
:103C18006E204CC5CD45B73FFF8300922449C23F73
:103C28000D5555555555D53F2F6C6A2C44B4A2BF38
:103C38009AFDDE522DDEAD3F6D9A74AFF2B0B33F00
:103C4800711623FEC671BC3FC4EB98999999C93F78
:103C58009C7500883CE4377EFFFF0F440000F07F2E
:103C6800FB21F93FFB21F9BF182D4454FFFFDB3F2F
:103C7800D8610008F86100080000F03FFFFFF23F3C
:103C8800008003400000F83F0000F0BF10B5264C4C
:103C980021F00043A34286B021DD244A934209DD86
:103CA80002460B46FCF7C0FA02460B461046194678
:103CB80006B010BD02AA00F0B3FE00F00300012810
:103CC80014D0022826D0E0B1DDE90423DDE90201A1
:103CD8000124009401F0E4FE02460B46E6E70022C8
:103CE800002306B0BDE8104001F08AB9DDE90423DD
:103CF8000090DDE9020101F0D3FE024601F1004324
:103D0800D4E7DDE90423DDE9020101F079F902468F
:103D18000B46CBE7DDE90423DDE9020101F070F988
:103D2800024601F10043C1E7FB21E93FFFFFEF7FB6
:103D380021F00041704700BF10B5294C21F0004325
:103D4800A34286B020DD274A934209DD02460B468E
:103D5800FCF76AFA02460B461046194606B010BD33
:103D680002AA00F05DFE00F00300012818D0022826
:103D78002AD0F0B1DDE90423DDE9020101F040F9C0
:103D8800024601F10043E7E70024002200230094E3
:103D980001F086FE02460B461046194606B010BDD5
:103DA800DDE90423DDE9020101F02AF902460B46A8
:103DB800D2E70124DDE90423DDE90201009401F0E2
:103DC8006FFE02460B46C7E70124DDE90423DDE95F
:103DD8000201009401F064FE024601F10043BBE7D2
:103DE800FB21E93FFFFFEF7F2DE9F84314461D460D
:103DF8008046894600F090F8224606460F462B4634
:103E080020462946FCF7F8FE78B9002200234046F0
:103E18004946FCF729FED8B100220023204629464E
:103E2800FCF722FE28B10026254F30463946BDE86A
:103E3800F8832046294601F025FF0028F5D02046C2
:103E4800294600220023FCF719FE0028EDD02CE0BB
:103E58003046394601F016FFA0B100220023304653
:103E68003946FCF701FE0028DFD04046494601F0FC
:103E780009FF0028D9D02046294601F003FF002871
:103E8800D3D012E04046494601F0FCFE0028E4D0B9
:103E98002046294601F0F6FE0028DED032463B4691
:103EA80030463946FCF7A8FE20B9FFF775FC2223F7
:103EB8000360BAE7FFF770FC21230360B5E700BF92
:103EC8000000F03FF8B504460D4600F0D3FF224647
:103ED80006460F462B4620462946FCF78DFE30B98C
:103EE8002046294600220023FCF7C8FD10B93046B9
:103EF8003946F8BDFFF750FC00220023212101605C
:103F080010461946FCF772FC06460F4630463946FD
:103F1800F8BD00BF000000002DE9F04F23F0004B72
:103F280080465BEA020014461D460E4693B016D141
:103F380043467D49DB1886F400225241984271EBD2
:103F4800020324D2404622462B463146FCF76EF93E
:103F5800CDE90001DDE9000113B0BDE8F08F11469D
:103F6800724A26F0004991459A463746434617DD7E
:103F780007F1404707F580171F43E3D122196A4923
:103F880085F400235B41974271EB0303DAD30023E6
:103F9800674CCDE90034DDE9000113B0BDE8F08FCE
:103FA80040D0624A9345E3DC00F09380002F73DB36
:103FB8000022029279B95D4A934500F08E805C4AEE
:103FC800934500F0A280BAF1804F00F0A084594ACE
:103FD800924500F0C683404631460493FFF7A8FE99
:103FE800049BCDE900015BB3029AFB0F013B0A93E6
:103FF800134300F09380504B9B4540F3A38003F19B
:1040080004739B454D4B40F31B84994540F39184C1
:10401800BAF1000F40F39184002013B0BDE8F04FCF
:1040280001F02ABE002B8DD1BBE7404631460293F2
:10403800FFF77EFE029BCDE90001002B6ED10293B3
:10404800B9F1000F04D03A4B27F040429A42CBD145
:10405800BAF1000F07DADDE9002300203449FCF744
:10406800C5FBCDE90001002FBFF674AF029B09F133
:10407800404909F5801959EA030340F06E84DDE9E7
:10408800002310461946FCF7CFF802460B46FCF70A
:10409800ADFBCDE900015DE7294A93452FDCA2F18C
:1040A800547293450FDD4FEA2B52A2F2FF32142AC5
:1040B80040F34584C2F1340221FA02F000FA02F218
:1040C8008A4200F077840022029200293FF477AFF9
:1040D80081E700293FF46AAF4AE709F1404202F557
:1040E800801213433FF453AF144B994540F36D834B
:1040F800BAF1000FC0F26383CDE900452AE7022236
:10410800029200293FF457AF65E7BAF1000FC0F2F9
:10411800F48340463146CDE900011BE7424640465C
:1041280033463146AFE700BF0000F0FF0000F07FE4
:104138000000F03F0000E03F0000E041FFFFEF3FDC
:10414800FFFF3F43D44B3B40002B40F04783DDE962
:1041580000010022D14BFCF71FFA6FF034028946A8
:10416800CDE900014FEA2953A3F2FF339A18CC4B4B
:10417800C9F3130949F07F5699450B9246F4401646
:1041880007DDC84B994540F3F58301320B92A6F53C
:1041980080160022002300200027C349CDE9082308
:1041A800CDE90601CDE91023DDE90001DDE90623AB
:1041B80031468246FCF738F8DDE90623B3468046E7
:1041C800894650463146CDE90CABFCF72FF802463C
:1041D8000B460020B449FCF709FB8C46834663462E
:1041E8005A4640464946CDE90EBCFCF7D5F9824609
:1041F8008B46731043F0005303F50023D9190F467B
:104208005A46514600230020CDE900120093064685
:1042180002463B46CDE904ABDDE900AB50465946C2
:10422800FCF7BAF902460B4640464946FBF7FCFF45
:10423800DDE906238046894630463946FBF7F4FF18
:1042480002460B46DDE90C01FBF7EEFF52465B46E2
:10425800FCF7A2F902460B4640464946FBF7E4FF45
:10426800DDE90E23FCF798F9DDE90467CDE90601DD
:1042780032463B4630463946FCF78EF974A3D3E9FB
:10428800002306460F46FCF787F973A3D3E90023FA
:10429800FBF7CCFF32463B46FCF77EF970A3D3E927
:1042A8000023FBF7C3FF32463B46FCF775F96EA3C4
:1042B800D3E90023FBF7BAFF32463B46FCF76CF91B
:1042C8006BA3D3E90023FBF7B1FF32463B46FCF76B
:1042D80063F969A3D3E90023FBF7A8FF32468046B8
:1042E80089463B4630463946FCF756F902460B46A6
:1042F80040464946FCF750F906460F46DDE90401F9
:1043080052465B46FBF792FFDDE90623FCF744F9CA
:1043180032463B46FBF78AFF5246804689465B4653
:1043280050465946FCF738F902460B46CDE90C23AE
:1043380000225E4BFBF77AFF42464B46FBF776FFBF
:1043480000260F4632463B4650465946FCF724F9AC
:10435800002282468B4630463946544BFBF764FFB1
:10436800DDE90C23FBF760FF02460B464046494651
:10437800FBF75AFFDDE90423FCF70EF932468046C5
:104388008946DDE906013B46FCF706F902460B467D
:1043980040464946FBF74AFF804689460026424682
:1043A8004B4650465946FBF741FF35A3D3E9002356
:1043B80030460F46FCF7F0F852465B4682468B467D
:1043C80030463946FBF730FF02460B464046494621
:1043D800FBF72AFF2CA3D3E90023FCF7DDF80246FC
:1043E8000B463046394616461F4629A3D3E9002313
:1043F800FCF7D2F802460B4630463946FBF716FF63
:10440800DDE91023FBF712FF06460B980F46FCF771
:1044180059F88046894632463B4650465946CDE9CA
:1044280004ABFBF703FFDDE90823FBF7FFFE4FF0C2
:10443800000A42464B46FBF7F9FE42464B465046B9
:104448008B46FBF7F1FEDDE90823FBF7EDFE2FE0D5
:10445800EF4E454A287ECA3F65DBC9934A86CD3F61
:1044680001411DA96074D13F4D268F515555D53F47
:10447800FFAB6FDBB66DDB3F033333333333E33FDF
:10448800000000E009C7EE3FFD033ADC09C7EE3F34
:10449800F5015B14E02F3EBE0000F07F00004043B2
:1044A8008E98030079B60B000000F03F000008402A
:1044B800DDE90423FBF7B8FE02460B4630463946D1
:1044C800FBF7B2FE029B0A9A013B13434FF000022E
:1044D8000CBFD54BD54BCDE90045CDE902230023D0
:1044E8000093DDE90089CDE9040142464B462046A8
:1044F8002946FBF799FE52465B46FCF74DF82246E3
:1045080006460F46DDE904012B46FCF745F802464E
:104518000B4630463946FBF789FE42464B4606466F
:104528000F4650465946FCF737F804460D463046C4
:104538002B4639462246FBF779FEBD4B8046994209
:1045480089468A4640F3178101F13F4303F5E003AA
:10455800034340F02482A2A3D3E90023304639461E
:10456800FBF764FE02460B4640464946904699468C
:1045780022462B46FBF758FE02460B464046494664
:10458800FCF79AFA002840F00A82CAF30A534FF45B
:1045980080120020A3F2FE3342FA03F35344A549E4
:1045A800C3F30A52A2F2FF3241FA02FCC3F3130B1F
:1045B80023EA0C01C2F114024BF4801BBAF1000F7C
:1045C8000B464BFA02FB294602462046B8BFCBF100
:1045D800000BFBF729FE04460D46304639462246B5
:1045E8002B46FBF723FE89464FEA0B5A4FF000088B
:1045F8007DA3D3E9002340464946FBF7CDFF224679
:104608002B4604460D4640464946FBF70DFE02463A
:104618000B4630463946FBF707FE75A3D3E900235E
:10462800FBF7BAFF74A3D3E9002306460F464046BA
:104638004946FBF7B1FF02460B4630463946FBF7C1
:10464800F5FD8046894642464B4620462946FBF7FB
:10465800EDFD22462B4606460F46FBF7E5FD0246D2
:104668000B4640464946FBF7DFFD32468046894601
:104678003B4630463946FBF78FFF61A3D3E9002359
:1046880004460D46FBF788FF5FA3D3E90023FBF739
:10469800CBFD22462B46FBF77FFF5DA3D3E9002322
:1046A800FBF7C4FD22462B46FBF776FF5AA3D3E956
:1046B8000023FBF7B9FD22462B46FBF76DFF58A3F5
:1046C800D3E90023FBF7B2FD22462B46FBF764FF34
:1046D80002460B4630463946FBF7A6FD04460D4612
:1046E80022462B4630463946FBF756FF02460B4614
:1046F8002046294614461D4600224FF08043FBF70A
:1047080093FD02460B4620462946FCF76FF84246C1
:1047180004460D464B4630463946FBF73DFF4246B8
:104728004B46FBF783FD02460B4620462946FBF71E
:104738007BFD32463B46FBF777FD02460B460020E1
:104748003A49FBF771FD8A44BAF5801FC0F223810C
:104758005146DDE90223FBF71FFFCDE90001FFF712
:10476800F9BB002FFFF637AC4046314613B0BDE821
:10477800F04F00F07FBBDFF8C0C021F00043634575
:1047880040F3CF802D4B0B4403430AD122462B46DE
:10479800FBF74AFD32463B46FCF784F900283FF414
:1047A800F4AEDDE9020100220023FCF767F90038C6
:1047B80018BF012013B0BDE8F04F01F057BA00232D
:1047C8000024CDE90034FFF7C5BBBAF1000FF6DAD3
:1047D80005F1004300940193FFF7BCBB0022C1E43C
:1047E800FE822B654715973C00000000432EE63FEC
:1047F800EF39FAFE422EE63F396CA80C615C20BE08
:10480800D0A4BE726937663EF16BD2C541BDBB3ECE
:104818002CDE25AF6A56113F93BDBE166CC1663FAC
:104828003E5555555555C53F0000F0BF0000F03FB7
:10483800FFFF8F40FFFF0F00FFCB904000346F3F1A
:10484800994576DB724B99453FF7E2ABDDE900010C
:1048580000226F4BFBF7E8FC61A3D3E9002306466F
:104868000F46FBF799FE60A3D3E9002382468B46E7
:1048780030463946FBF790FE0022CDE90001654B32
:1048880030463946FBF788FE02460B4658A1D1E967
:104898000001FBF7C9FC32463B46FBF77DFE0246AA
:1048A8000B4600205C49FBF7BFFC32463B4680467E
:1048B800894630463946FBF76FFE02460B464046AE
:1048C8004946FBF769FE4CA3D3E90023FBF764FED6
:1048D80002460B46DDE90001FBF7A6FC06460F463B
:1048E8005046594632463B46FBF7A0FC52464FF02D
:1048F800000A5B4650468B46DCE5424600203346BC
:104908004349FBF773FFCDE90001FFF723BB42469C
:10491800404633463146FBF73FFECDE90001FFF73D
:1049280019BB3D4A934256DCDDE900239246934683
:104938005CE6BAF1000FFFF66FAB00203AE70029FA
:104948007FF473ABC2F114024BFA02F000FA02F2E0
:104958005A4539D00291FFF732BB029B012B7FF4F5
:10496800F9AADDE90045224605F10043CDE9002317
:10497800FFF7F0BA0022294B4FF48027CDE9062330
:104988001FA3D3E90023CDE908231FA3D3E90023FC
:10499800CDE9102308E45A4601F0F6F9D9E60022D9
:1049A800DDE902010023FCF769F8003818BF01208F
:1049B800FFF733BB00F00100C0F1020202920029A8
:1049C8003FF4FDAAFFF707BB00F00100C0F10202A7
:1049D8000292FFF7F4BA1B15D9E500BFAFF30080C8
:1049E800000000604715F73F44DF5DF80BAE543E0A
:1049F800555555555555D53FFE822B654715F73FFB
:104A08000000004003B8E23F06D0CF43EBFD4C3E28
:104A18000000F03F0000D03F0000E03F0000F83FFA
:104A28002DE9F04FDFF838C221F00045654506460C
:104A380014468FB040F385808A4A0F46954226DC9B
:104A48007DA3D3E90023002940F3C081FBF7ECFBE9
:104A5800854B80469D42894600F08A8078A3D3E939
:104A68000023FBF7E1FB02460B464046C4E900235E
:104A78004946FBF7D9FB72A3D3E90023FBF7D4FB24
:104A88000126C4E9020130460FB0BDE8F08F774A2D
:104A9800954240F38D80764A95425FDC4FEA25586F
:104AA800A8F21648A5EB08518B46FCF7BBF8FBF7B4
:104AB80009FD02460B4630465946CDE90823FBF767
:104AC800B3FB00226B4BFBF767FD8B468246FCF776
:104AD800A9F80546FBF7F6FC02460B465046594630
:104AE800CDE90A23FBF7A0FB0022624BFBF754FD3C
:104AF80002460B46CDE90C2300220023FBF7B4FF46
:104B0800002800F06181002D0CBF0123022302253B
:104B180059494246019108A82146009500F098FBA2
:104B2800002F0646AFDAD4E9000505F10041C4E9D3
:104B38000001E168A26801F10043C4E9022376425A
:104B4800A1E700264FF000084FF00009C2E9000174
:104B58003046C2E902890FB0BDE8F08F02460B4625
:104B6800FBF762FB0026C4E90201C4E900018AE7F9
:104B780035A3D3E90023FBF757FB35A3D3E900237B
:104B880080468946FBF750FB02460B464046C4E97F
:104B980000234946FBF748FB2DA3D3E90023FBF785
:104BA80043FB0126C4E9020130460FB0BDE8F08F8F
:104BB800FFF7BEF828A3D3E9002380468946FBF710
:104BC800EBFC00222D4BFBF731FBFCF72BF80646DC
:104BD800FBF778FC18A3D3E9002382468B46CDE97E
:104BE80004ABFBF7D9FC02460B4640464946FBF7A7
:104BF8001BFB13A3D3E90023CDE902015046594614
:104C0800FBF7CAFC1F2E804689463BDC1C4B721EF4
:104C180053F82230AB4235D002460B46DDE902019B
:104C2800FBF702FB02460B4682468B46C4E900238B
:104C3800AEE000BFAFF3008000004054FB21F93F15
:104C48003163621A61B4D03D0000601A61B4D03D8E
:104C58007370032E8A19A33B83C8C96D305FE43F84
:104C6800FB21E93F7BD90240FB21F93FFB21394178
:104C7800FFFFEF7F00007041986200080000E03FEE
:104C8800186200082B1507934246DDE902014B46DE
:104C9800FBF7CAFAC1F30A53C3EB1555102D8B461F
:104CA800824671DD68A3D3E90023DDE90401FBF73F
:104CB80073FCDDE902AB8046894642464B465046C6
:104CC8005946FBF7B1FA02460B46504659469246FA
:104CD8009B46FBF7A9FA42464B46FBF7A5FA5CA3AD
:104CE800D3E9002380468946DDE90401FBF754FC3B
:104CF80042464B46FBF798FA804689465046594645
:104D080042464B46CDE902ABFBF78EFA079AC1F350
:104D18000A53D31A312B8B46824635DD4EA3D3E98D
:104D28000023DDE90401FBF737FCDDE902AB80462F
:104D3800894642464B4650465946FBF775FA0246A5
:104D48000B465046594692469B46CDE902ABFBF7C7
:104D58006BFA42464B46FBF767FA41A3D3E90023B7
:104D680080468946DDE90401FBF716FC42464B46BE
:104D7800FBF75AFA804689465046594642464B4602
:104D8800FBF752FA8B46824652465B46C4E900233B
:104D9800DDE9020152465B46FBF746FA42464B46BE
:104DA800FBF742FA02460B46002FC4E90223BFF67E
:104DB8006AAE0BF1004301F10041A0606360E1605D
:104DC8007642C4F800A05EE60323A0E6FBF72EFABD
:104DD800274B80469D42894616D023A3D3E900235A
:104DE800FBF724FA02460B464046C4E9002349462D
:104DF800FBF71AFA1CA3D3E90023FBF717FA4FF0C5
:104E0800FF36C4E902013EE60FA3D3E90023FBF70E
:104E18000DFA0FA3D3E9002380468946FBF706FA6B
:104E280002460B464046C4E900234946FBF7FCF915
:104E380007A3D3E90023FBF7F9F94FF0FF36C4E9DC
:104E4800020120E6AFF300800000601A61B4D03D93
:104E58007370032E8A19A33B0000002E8A19A33B06
:104E6800C14920259A837B393163621A61B4D03DE8
:104E7800FB21F93F2DE9F843604E054636EA010269
:104E88000C4600F09E8000290B46844654DD091527
:104E980062D0C3F31303C807A1F2FF3743F48013AA
:104EA80004D45B0003EBDC734FEA4C0C00264FEA9A
:104EB800DC7202EB43034FF0160E4FF40012344637
:104EC8007F104FEA4C0CA118994202DC5B1A8C182F
:104ED80016445B00BEF1010E03EBDC734FEA52028D
:104EE8004FEA4C0CEFD1754620204FF000420AE003
:104EF80043D04FEADC71013801EB43034FEA4C0C15
:104F08004FEA520242D0A34202EB0E01F0DD002923
:104F180001EB020E0ADBA0461B1B614588BF03F1AB
:104F2800FF334446ACEB010C1544E2E7BEF1000F39
:104F3800F1DB04F10108EFE721F00042024336D02B
:104F480000294CD14FEADC22134615394FEA4C5C54
:104F5800002AF7D0D6024CD400205B00DD020446BC
:104F680000F10100F9D51A4663460CFA00FCC0F1BD
:104F78002000C340091B13438BE76145B9D80029BA
:104F880001EB020ED2DB98460023CAE753EA0C0372
:104F980011D16808731003F17F5303F50013F2076A
:104FA80048BF40F0004003EB075905464C462846E9
:104FB8002146BDE8F883691C16BF681C0136400805
:104FC800E8E702460B46FBF7E7FA2A462346FBF7D3
:104FD8002DF905460C4628462146BDE8F8830246C9
:104FE800FBF722F902460B46FBF700FC05460C4688
:104FF800DDE7634620204FF0FF34BAE70000F07F7A
:105008002DE9F04F21F00046B6F1795F92469B46B4
:105018000C46054685B06DDAFBF704FE002800F063
:10502800EB802A46234628462146FBF7B5FA76A3A5
:10503800D3E9002380468946FBF7AEFA74A3D3E987
:105048000023FBF7F3F842464B46FBF7A5FA72A399
:10505800D3E90023FBF7E8F842464B46FBF79CFAF6
:105068006FA3D3E90023FBF7E1F842464B46FBF771
:1050780093FA6DA3D3E90023FBF7D6F842464B46D3
:10508800FBF78AFA6AA3D3E90023FBF7CFF8424675
:105098004B46FBF781FACDE900010022404649461C
:1050A800654BFBF779FADDE9002306460F464046D3
:1050B8004946FBF771FAA846A14652465B460446A4
:1050C8000D4640464946FBF767FA02460B4620461E
:1050D8002946FBF7A9F802460B4630463946FBF746
:1050E800A3F802460B4600205449FBF79DF805B08B
:1050F800BDE8F08F02460B46FBF74EFA42A3D3E910
:10510800002380468946FBF747FA41A3D3E90023E9
:10511800FBF78CF842464B46FBF73EFA3EA3D3E931
:105128000023FBF781F842464B46FBF735FA3CA3D0
:10513800D3E90023FBF77AF842464B46FBF72CFAF3
:1051480039A3D3E90023FBF76FF842464B46FBF738
:1051580023FA37A3D3E90023FBF768F84B46424606
:10516800FBF71AFA364BCDE900019E4295DD354B27
:1051780000229E423ADCA6F5001300202F4916466D
:105188001F46FBF751F8CDE9020100224046494687
:10519800294BFBF701FA32463B46FBF745F8DDE9B8
:1051A800002306460F4640464946FBF7F5F9A84650
:1051B800A14652465B4604460D4640464946FBF723
:1051C800EBF902460B4620462946FBF72DF8024626
:1051D8000B4630463946FBF727F802460B46DDE911
:1051E8000201FBF721F805B0BDE8F08F164B002649
:1051F800CDE90223154FC8E70020104905B0BDE8E6
:10520800F08F00BFAFF30080D43888BEE9FAA8BD9C
:10521800C4B1B4BD9EEE213EAD529C804F7E923EFD
:105228009015CB19A001FA3E7751C1166CC1563FB3
:105238004C5555555555A53F0000E03F0000F03F3F
:105248003233D33F0000E93F0000E73F0000D23F80
:105258002DE9F04FADF5197DB84CA29D089354F88F
:105268002540013B12F1140F074605940B91039357
:10527800C0F24283B249D31E81FB0301DB17C3EBA3
:10528800A10307930133A3EB8303DB00D318069331
:10529800079A039BD61A059A12EB03091BD409F146
:1052A800010900240025DDF88CA2B1440DF1800825
:1052B80008E05AF82600FBF705F901364E45E8E8FC
:1052C800020108D0002EF4DA2046294601364E4560
:1052D800E8E80201F6D1059B002BC0F2BC83089BCD
:1052E80020AA02EBC30ADA000292059AA7F1080184
:1052F8001A44DDF80C9004910DF5E07B019201EB66
:10530800C308039B002BC0F2AE815746002400253A
:10531800049E77E90223F6E90201FBF73DF902460C
:105328000B4620462946FAF781FF464504460D46B6
:10533800EFD1019B09F101099945EBE802450AF112
:10534800080ADED1049BDDF808B00BAA9B44059B34
:1053580002EB83020A920CAA019302EB8303083B37
:105368000993019A98AB03EBC203002A53E9284535
:1053780029DD0DF5E07A0DF130090AEBC2080022AB
:10538800704B20462946FBF707F9FBF74BFCFBF768
:1053980099F800226C4B06460F46FBF7FDF80246CB
:1053A8000B4620462946FAF73FFFFBF73BFC78E916
:1053B800022349F8040B39463046FAF737FFD0453F
:1053C80004460D46DBD1DDF81890204629464A46AA
:1053D80000F0DAFC00224FF07F5304460D46FBF73D
:1053E800DBF800F055FC0022584BFBF7D5F80246D5
:1053F8000B4620462946FAF717FF0D460446FBF7E9
:1054080011FC8046FBF75EF80B460246294620460B
:10541800FAF70AFF4B46002B06460F4640F39880E2
:10542800019A0CA9013A51F82250C9F1180345FA1A
:1054380003F101FA03F3ED1A0CAB43F82250C9F15A
:1054480017031D41002D884400F38C80002200239F
:1054580030463946FBF708FB002800F05482019BD0
:10546800059A03F1FF3A524510DC002203F180430C
:10547800013B0CA90A9801EB830353F804198342F2
:1054880042EA0102F9D1002A40F0F080059B0CAAFB
:10549800013B52F82330002B40F0E0800123099AA9
:1054A80052F8041901330029FAD0019AD31802934B
:1054B800531C9946DDF80480089A9044079A02EB39
:1054C800030A0AF1804AA39A0AF1FF3A02EB8A0A10
:1054D80020AA02EBC80870AA02EBC30301935AF88A
:1054E800040FFAF7EFFF039B4746002B08F1080863
:1054F80048E902011FDB00240025049E083F01E063
:1055080077E80201F6E90223FBF746F802460B4664
:1055180020462946FAF78AFE5E4504460D46EFD135
:10552800019B09F10109E3E802450193029B9945B2
:10553800D5DD019315E700240025F1E7E0630008B5
:10554800ABAAAA2A0000703E00007041000020406B
:105558006BD1019B0CAA013B52F82350ED15002D8D
:105568007FF774AF019B08F10108002B40F3C98154
:105578000C9C002C51D1019B012B20D001220CAB9B
:1055880053F8044F002C4BD0531C0CA9C4F1807461
:1055980041F822400199994210DD0CAC0CAA52F84E
:1055A80023206FF07F4004EB830304EB810100E0CC
:1055B8001A68821A43F8042B8B42F9D10124069BFE
:1055C800002B0EDD012B00F08C81022B09D1019BF1
:1055D8000CA95A1E0CAB53F82230C3F3150341F83B
:1055E8002230022D7FF432AF32463B4600207A4902
:1055F800FAF71AFE06460F46002C3FF427AF069A24
:105608000020754900F0C0FB02460B46304639467B
:10561800FAF70AFE06460F4618E701230022B4E708
:10562800019901328A42ABD1C9E700226B4BFBF7E3
:1056380039FA054600283FF409AF019B08F1010833
:10564800002BC8BF022593DC32463B460020624946
:10565800FAF7EAFD022506460F46F7E6019B0133F5
:105668009946029326E70024002562E6069B0395E7
:10567800A3F118020CAB53F82A30CDF81C8006921F
:1056880073B9019B0CA903F18043023B01EB83032F
:1056980053F804190AF1FF3A183A0029F8D006928B
:1056A8000020069A4C4900F06FFBBAF1000F04463F
:1056B8000D46C0F2D7814FF0000870AB03EBCA0B60
:1056C8000CAA0AF10103069302EB8306DFF8109196
:1056D8004FEACA0304930BF1080756F8040DFAF7CA
:1056E800F1FE22462B46FAF757FF4B4667E90201BF
:1056F800424620462946FAF74FFF0CAB9E42044625
:105708000D46EAD148ABCDE9013ADDF814A04FF0D7
:105718000009BAF1000F2CDB2DA3D3E900235F4663
:10572800002600240025DFF8BC8003E0B14510DB2B
:10573800F8E80223F7E80201FAF72EFF02460B46C3
:1057480020462946FAF772FD0136B24504460D4651
:10575800ECDA019B029A03EBC9039145C3E90045C2
:10576800ABF1080B09F1010306D0BAF1000F994615
:10577800D2DA00240025ECE7A29BDDF808A0022B72
:1057880032DC002B00F3F28018D1A29B049D1C464A
:10579800019E08353544184675E902232146FAF773
:1057A80045FDAE4203460C46F5D1039A0AB104F111
:1057B8000044184621460B9BC3E90001079B03F0F0
:1057C80007000DF5197DBDE8F08F00BFAFF300802D
:1057D80000000040FB21F93F0000F03F0000E03FDF
:1057E8000000703EA8630008A29B032BE6D1BAF123
:1057F800000F00F04D81019B049A13449B46D3E9A6
:1058080000455BE902672046294632463B46FAF7DF
:105818000DFDA046A94604460D4622462B463046B5
:105828003946FAF701FD4B464246FAF7FFFCCBE949
:1058380000016BE90245019B5B45E2D1BAF1010F1A
:1058480040F32681049B019A0DF5947B13449A46F4
:10585800D3E9004502935AE90267204629463246B1
:105868003B46FAF7E3FCA046A94604460D46224605
:105878002B4630463946FAF7D7FC42464B46FAF7EC
:10588800D5FCCAE900016AE90245D345E3D1002302
:105898001E46029C019A083402F11005184674E964
:1058A80002233146FAF7C2FCA54203460E46F5D15B
:1058B800039A002A40F0A480184631460B9C019BAD
:1058C800C4E90401D3E90223C4E90223DDE948233A
:1058D800C4E90023079B03F007000DF5197DBDE817
:1058E800F08F019B0CA95A1E0CAB53F82230C3F35E
:1058F800160341F8223074E600216FF01703079170
:10590800C4E400245BE6069C3046394662420395AF
:10591800CDF81C8000F038FA00225F4B06460F468F
:10592800FBF7C0F8002861D000225C4B18343046E1
:1059380039460694FAF730FEFBF774F90446FAF78D
:10594800C1FD0022544BFAF727FE0B4602463946A2
:105958003046FAF769FCFBF765F9019D0CAB05F1D8
:10596800010A43F8250043F82A4099E60026344600
:10597800019F069B07EBC305304675E902232146C4
:10598800FAF754FCAF4206460C46F5D1039B002BB0
:1059980050D13046214623460B9C3246C4E90001CB
:1059A800DDE94801FAF740FCBAF1000F03460E465C
:1059B80010DD012448AD1846F5E902233146FAF70F
:1059C80035FC0134A24503460E46F4DA039A0AB1BF
:1059D80006F10046184631460B9BC3E90201079BB6
:1059E80003F007000DF5197DBDE8F08F3046394604
:1059F800FBF718F9019B0CAA9A4642F823004FE6D8
:105A08000B9D019C06F100466E6126462068A2683F
:105A180064682B6104F10041F468C5E9000104F1F0
:105A28000043C5E90223079B03F007000DF5197D24
:105A3800BDE8F08F0B9804F100410660324623461A
:105A48004160DDE94801FAF7EFFBBAF1000F0346C0
:105A58000E46AEDCBCE7A7F108030493089BDB0005
:105A680002936FE4A29B022B06DC002B0DDC7FF473
:105A7800A5AEA29B1C4698E6A29B032B7FF49EAE84
:105A8800002348AA1E46019212E7002634467DE705
:105A980000231E460CE700BF000070410000703E66
:105AA8002DE9F04F85B0CDE9022321F00043B3F191
:105AB800795F8246019104DAFBF7B4F8002800F018
:105AC8008E80019B524619465046FAF765FD0446FA
